:100000000200107A5A79FA78FAD8FED9FADAF6228A
:1000100075817F75E800759500E5E85407B4000523
:1000200002005D80F4B4010502007280ECB40205A8
:1000300002008780E4B4030502008A80DCB4040572
:1000400002008D80D4B405050200BA80CCB4060548
:100050000200F680C4B407C102013880BC758F79F4
:10006000758E2475943075931975921275910202EC
:100070000019758F7F758E7F75947F75937F75924C
:1000800078759100020019020019020019758F306D
:10009000758E197594127593027592787591001288
:1000A0000003758F7F758E7F75947F75937F759232
:1000B0007F75917F120003020019758F7F758E7F07
:1000C00075947F75937F75927F75917F120003758C
:1000D0008F79120003758E2412000375943012007C
:1000E00003759319120003759212120003759102A1
:1000F000120003020019758F09758E0675944775F5
:10010000934775924075917F120003758F79758EB4
:10011000247594307593197592127591021200032B
:10012000758F46758E0C75944875933075927975F8
:0B0130009124120003020019020019C4
:00000001FF
