:100000000200107A5A7BFA78FAD8FEDBFADAF62286
:1000100075817F75E800759500E5E85407B4000523
:1000200002005D80F4B4010502007280ECB40205A8
:1000300002008780E4B4030502010680DCB40405F5
:1000400002018580D4B405050201B280CCB4060556
:100050000201EE80C4B407C102023080BC758F7902
:10006000758E2475943075931975921275910202EC
:100070000019758F7F758E7F75947F75937F75924C
:100080007875910002001979407779794177247960
:100090004277307943771979447712794577027935
:1000A000467778794777007940B948027940878F59
:1000B00009B948027940878E09B948027940879486
:1000C00009B948027940879309B948027940879273
:1000D00009B948027940879109E5E85407B4022339
:1000E000120003B94002794819B94002794819B998
:1000F0004002794819B94002794819B94002794853
:100100001980A60200197940770079417778794201
:1001100077027943771279447719794577307946B0
:100120007724794777797940B948027940879109EE
:10013000B948027940879209B94802794087930902
:10014000B948027940879409B948027940878E09F5
:10015000B948027940878F09E5E85407B4032312B0
:100160000003B94002794819B94002794819B940E9
:1001700002794819B94002794819B94002794819F9
:1001800080A6020019758F30758E197594127593BB
:1001900002759278759100120003758F7F758E7FBE
:1001A00075947F75937F75927F75917F120003021E
:1001B0000019758F7F758E7F75947F75937F75920B
:1001C0007F75917F120003758F79120003758E245D
:1001D0001200037594301200037593191200037511
:1001E0009212120003759102120003020019758F1A
:1001F00009758E0675944775934775924075917F82
:10020000120003758F79758E247594307593197566
:100210009212759102120003758F46758E0C7594BB
:100220004875933075927975912412000302001974
:03023000020019B0
:00000001FF
